:020000040000fa
:080000000002040000000000f2
:020000040000fa
:0400080040030000b1
:020000040000fa
:04000c0040030000ad
:020000040000fa
:0400100040030000a9
:020000040000fa
:0400140040030000a5
:020000040000fa
:0400180040030000a1
:020000040000fa
:04001c00400300009d
:020000040000fa
:040020004003000099
:020000040000fa
:040024004003000095
:020000040000fa
:040028004003000091
:020000040000fa
:04002c00400300008d
:020000040000fa
:040030004003000089
:020000040000fa
:040034004003000085
:020000040000fa
:040038004003000081
:020000040000fa
:04003c00400300007d
:020000040000fa
:040040004003000079
:020000040000fa
:0400440012030000a3
:020000040000fa
:040048004003000071
:020000040000fa
:04004c00400300006d
:020000040000fa
:040050004003000069
:020000040000fa
:040054004003000065
:020000040000fa
:040058004003000061
:020000040000fa
:04005c00400300005d
:020000040000fa
:040060004003000059
:020000040000fa
:040064004003000055
:020000040000fa
:040068004003000051
:020000040000fa
:04006c00400300004d
:020000040000fa
:040070004003000049
:020000040000fa
:04007400e0020000a6
:020000040000fa
:040078004003000041
:020000040000fa
:04007c00400300003d
:020000040000fa
:040080004003000039
:020000040000fa
:040084004003000035
:020000040000fa
:040088004003000031
:020000040000fa
:04008c00400300002d
:020000040000fa
:040090004003000029
:020000040000fa
:040094004003000025
:020000040000fa
:040098004003000021
:020000040000fa
:04009c00400300001d
:020000040000fa
:0400a0004003000019
:020000040000fa
:0400a4004003000015
:020000040000fa
:0400a8004003000011
:020000040000fa
:0400ac00400300000d
:020000040000fa
:0400b0004003000009
:020000040000fa
:0400b4004003000005
:020000040000fa
:0400b8004003000001
:020000040000fa
:0400bc0040030000fd
:020000040000fa
:0400c00040030000f9
:020000040000fa
:0400c40040030000f5
:020000040000fa
:0400c80040030000f1
:020000040000fa
:0400cc0040030000ed
:020000040000fa
:0400d00040030000e9
:020000040000fa
:0400d40040030000e5
:020000040000fa
:0400d80040030000e1
:020000040000fa
:0400dc0040030000dd
:020000040000fa
:0400e00040030000d9
:020000040000fa
:0400e40040030000d5
:020000040000fa
:0400e80040030000d1
:020000040000fa
:0400ec0040030000cd
:020000040000fa
:0400f00040030000c9
:020000040000fa
:0400f40040030000c5
:020000040000fa
:0400f80040030000c1
:020000040000fa
:0400fc0040030000bd
:020000040000fa
:0401000040030000b8
:020000040000fa
:0401040040030000b4
:020000040000fa
:0401080040030000b0
:020000040000fa
:04010c0040030000ac
:020000040000fa
:0401100040030000a8
:020000040000fa
:0401140040030000a4
:020000040000fa
:0401180040030000a0
:020000040000fa
:04011c00400300009c
:020000040000fa
:040120004003000098
:020000040000fa
:040124004003000094
:020000040000fa
:040128004003000090
:020000040000fa
:04012c00400300008c
:020000040000fa
:040130004003000088
:020000040000fa
:040134004003000084
:020000040000fa
:040138004003000080
:020000040000fa
:04013c00400300007c
:020000040000fa
:040140004003000078
:020000040000fa
:040144004003000074
:020000040000fa
:040148004003000070
:020000040000fa
:04014c00400300006c
:020000040000fa
:040150004003000068
:020000040000fa
:040154004003000064
:020000040000fa
:040158004003000060
:020000040000fa
:04015c00400300005c
:020000040000fa
:040160004003000058
:020000040000fa
:040164004003000054
:020000040000fa
:040168004003000050
:020000040000fa
:04016c00400300004c
:020000040000fa
:040170004003000048
:020000040000fa
:040174004003000044
:020000040000fa
:040178004003000040
:020000040000fa
:04017c00400300003c
:020000040000fa
:040180004003000038
:020000040000fa
:040184004003000034
:020000040000fa
:040188004003000030
:020000040000fa
:04018c00400300002c
:020000040000fa
:040190004003000028
:020000040000fa
:040194004003000024
:020000040000fa
:040198004003000020
:020000040000fa
:04019c00400300001c
:020000040000fa
:0401a0004003000018
:020000040000fa
:0401a4004003000014
:020000040000fa
:0401a8004003000010
:020000040000fa
:0401ac00400300000c
:020000040000fa
:0401b0004003000008
:020000040000fa
:0401b4004003000004
:020000040000fa
:0401b8004003000000
:020000040000fa
:0401bc0040030000fc
:020000040000fa
:0401c00040030000f8
:020000040000fa
:0401c40040030000f4
:020000040000fa
:0401c80040030000f0
:020000040000fa
:0401cc0040030000ec
:020000040000fa
:0401d00040030000e8
:020000040000fa
:0401d40040030000e4
:020000040000fa
:0401d80040030000e0
:020000040000fa
:0401dc0040030000dc
:020000040000fa
:0401e00040030000d8
:020000040000fa
:0401e40040030000d4
:020000040000fa
:0401e80040030000d0
:020000040000fa
:0401ec0040030000cc
:020000040000fa
:0401f00040030000c8
:020000040000fa
:0401f40040030000c4
:020000040000fa
:0401f80040030000c0
:020000040000fa
:0401fc0040030000bc
:020000040000fa
:0402080040030000af
:020000040000fa
:04020c0040030000ab
:020000040000fa
:0402100040030000a7
:020000040000fa
:0402140040030000a3
:020000040000fa
:04021800400300009f
:020000040000fa
:04021c00400300009b
:020000040000fa
:040220004003000097
:020000040000fa
:040224004003000093
:020000040000fa
:04022800400300008f
:020000040000fa
:04022c00400300008b
:020000040000fa
:040230004003000087
:020000040000fa
:040234004003000083
:020000040000fa
:04023800400300007f
:020000040000fa
:04023c00400300007b
:020000040000fa
:040240004003000077
:020000040000fa
:0402440012030000a1
:020000040000fa
:04024800400300006f
:020000040000fa
:04024c00400300006b
:020000040000fa
:040250004003000067
:020000040000fa
:040254004003000063
:020000040000fa
:04025800400300005f
:020000040000fa
:04025c00400300005b
:020000040000fa
:040260004003000057
:020000040000fa
:040264004003000053
:020000040000fa
:04026800400300004f
:020000040000fa
:04026c00400300004b
:020000040000fa
:040270004003000047
:020000040000fa
:04027400e0020000a4
:020000040000fa
:04027800400300003f
:020000040000fa
:04027c00400300003b
:020000040000fa
:040280004003000037
:020000040000fa
:040284004003000033
:020000040000fa
:04028800400300002f
:020000040000fa
:04028c00400300002b
:020000040000fa
:040290004003000027
:020000040000fa
:040294004003000023
:020000040000fa
:04029800400300001f
:020000040000fa
:04029c00400300001b
:020000040000fa
:0402a0004003000017
:020000040000fa
:0402a4004003000013
:020000040000fa
:0402a800400300000f
:020000040000fa
:0402ac00400300000b
:020000040000fa
:0402b0004003000007
:020000040000fa
:0402b4004003000003
:020000040000fa
:0402b80040030000ff
:020000040000fa
:0402bc0040030000fb
:020000040000fa
:0402c00040030000f7
:020000040000fa
:0402c40040030000f3
:020000040000fa
:0402c80040030000ef
:020000040000fa
:0402cc0040030000eb
:020000040000fa
:0402d00040030000e7
:020000040000fa
:0402d40040030000e3
:020000040000fa
:0402d80040030000df
:020000040000fa
:0402dc0040030000db
:020000040000fa
:0402e00040030000d7
:020000040000fa
:0402e40040030000d3
:020000040000fa
:0402e80040030000cf
:020000040000fa
:0402ec0040030000cb
:020000040000fa
:0402f00040030000c7
:020000040000fa
:0402f40040030000c3
:020000040000fa
:0402f80040030000bf
:020000040000fa
:0402fc0040030000bb
:020000040000fa
:0403000040030000b6
:020000040000fa
:0403040040030000b2
:020000040000fa
:0403080040030000ae
:020000040000fa
:04030c0040030000aa
:020000040000fa
:0403100040030000a6
:020000040000fa
:0403140040030000a2
:020000040000fa
:04031800400300009e
:020000040000fa
:04031c00400300009a
:020000040000fa
:040320004003000096
:020000040000fa
:040324004003000092
:020000040000fa
:04032800400300008e
:020000040000fa
:04032c00400300008a
:020000040000fa
:040330004003000086
:020000040000fa
:040334004003000082
:020000040000fa
:04033800400300007e
:020000040000fa
:04033c00400300007a
:020000040000fa
:040340004003000076
:020000040000fa
:040344004003000072
:020000040000fa
:04034800400300006e
:020000040000fa
:04034c00400300006a
:020000040000fa
:040350004003000066
:020000040000fa
:040354004003000062
:020000040000fa
:04035800400300005e
:020000040000fa
:04035c00400300005a
:020000040000fa
:040360004003000056
:020000040000fa
:040364004003000052
:020000040000fa
:04036800400300004e
:020000040000fa
:04036c00400300004a
:020000040000fa
:040370004003000046
:020000040000fa
:040374004003000042
:020000040000fa
:04037800400300003e
:020000040000fa
:04037c00400300003a
:020000040000fa
:040380004003000036
:020000040000fa
:040384004003000032
:020000040000fa
:04038800400300002e
:020000040000fa
:04038c00400300002a
:020000040000fa
:040390004003000026
:020000040000fa
:040394004003000022
:020000040000fa
:04039800400300001e
:020000040000fa
:04039c00400300001a
:020000040000fa
:0403a0004003000016
:020000040000fa
:0403a4004003000012
:020000040000fa
:0403a800400300000e
:020000040000fa
:0403ac00400300000a
:020000040000fa
:0403b0004003000006
:020000040000fa
:0403b4004003000002
:020000040000fa
:0403b80040030000fe
:020000040000fa
:0403bc0040030000fa
:020000040000fa
:0403c00040030000f6
:020000040000fa
:0403c40040030000f2
:020000040000fa
:0403c80040030000ee
:020000040000fa
:0403cc0040030000ea
:020000040000fa
:0403d00040030000e6
:020000040000fa
:0403d40040030000e2
:020000040000fa
:0403d80040030000de
:020000040000fa
:0403dc0040030000da
:020000040000fa
:0403e00040030000d6
:020000040000fa
:0403e40040030000d2
:020000040000fa
:0403e80040030000ce
:020000040000fa
:0403ec0040030000ca
:020000040000fa
:0403f00040030000c6
:020000040000fa
:0403f40040030000c2
:020000040000fa
:0403f80040030000be
:020000040000fa
:0403fc0040030000ba
:020000040000fa
:10040000efd320000ebf22000e0188000000000084
:10041000000020000000e000020032000001200087
:100420002002880014000700970007000000e00089
:1004300003003a00609a2400010020000200370007
:100440000000200001002000810f70000100320038
:1004500014000700000020000000e000020032004d
:1004600000000200000000004a3f020000000000ff
:100470000040da000000fe004440a900a0862000f1
:100480000000e0000300320000002000a00188000e
:100490004440a800000006008a1f78008b1f7800e7
:1004a0000000060091018800800478000000eb0045
:1004b0001a003700e284440032a0b4009905ba0063
:1004c000e284440032a0b4009906ba00e2844400f9
:1004d00032a0b4000006eb00476fde00fd07b2005b
:1004e000636ce10003003a00ebff07000000eb0043
:1004f0000a003700606ce10004003a00005deb0088
:100500008b05e900fdff3e00040037006168e10053
:10051000010032000086eb000b00070019c7ba008b
:100520001905ba000e04e00003003a000a00e000da
:10053000e0ff3a0000000600fe07b2009e018800be
:100540008a047800f5ff3700395dba008b05e900b1
:100550000c003200295dba008b05e900080032006a
:100560000c00e00003003a00e284440032a0b40032
:10057000f5ff370019ddba008b05e900faff3a00f4
:100580008904e800e184440032a0b40000000600c1
:10059000000000000000000000000000000000005b
:1005a000000000000000000000000000000000004b
:1005b000000000000000000000000000000000003b
:1005c000809fbe000000fa008660a90051168000de
:1005d00000102000008060000000e0000a003200ef
:1005e00006c8bf000004e00007003a00b0c52000c4
:1005f000104078000004e00003003200a0c5200095
:100600008040eb0001487800501680004800de0072
:100610006140600006e8b7000080fa004f00be00ad
:10062000004006003600f800809fbe00829fbe009a
:10063000849fbe00869fbe000000fa0084e0a900ef
:10064000b0c52000104078000004e0000500320032
:1006500040c52000104078000004e0000100320096
:10066000992007000080fa004f03be004f02be0031
:100670004f01be004f00be003600f90000400600ea
:100680000040da000000fe0000000500839f6800c3
:100690000100e00002003d0060001000e080180052
:1006a0000300e00002003d0060011100e08119003c
:1006b0006e0007004f00e00002003b0060001000e9
:1006c000e08018000000060014002000cf0337006f
:1006d000f4ff2f00cd0337000001be003f000700ec
:1006e0000470a70003f0a1006509b10016003200f4
:1006f0000d0035006828e10006003500f0ff2f00ee
:10070000f1ff27000300e00013003b000100280078
:100710000000050000004000818048008502e900db
:10072000fcff3a0008003700f88f420002003c004e
:100730008000eb00000005008100d1000080d300a4
:100740008502e800fcff3a000300e00002003b00e5
:1007500060001000e0801800000006000001be00ec
:100760001e0007000470a70003f0a10003f8a30017
:1007700013003a006509b10010003200090035008d
:100780006928e10002003500010028000000050092
:1007900000004000818048008502e900fcff3a002b
:1007a00000000600f88f4200050035008100d100ee
:1007b0000080d3008502e800fcff3a00000006003c
:1007c0008000eb00000005004f89de008201780008
:1007d000a90337006011b800b7033700c70ade006d
:1007e000f107b200f50fb20008003200e1cf42007d
:1007f000020032000170a00024000500810f70008b
:10080000010032000408050044000500810f70005b
:1008100002003a00140005008502e90000004000d3
:1008200081c04800fcff3b000170a00024000500cf
:10083000811f78000100e00002003d006000100010
:10084000e08018000300e00002003d00600111009c
:10085000e0811900150007004f00e00002003b0096
:1008600060001000e0801800000006006022b80060
:10087000060220000000d0008180d2000482d20055
:100880008582d2000000a0000202520083825a003a
:10089000030031000202420083824a000000a100ee
:1008a0000603e900f3ff3a0000000600efff07002f
:1008b0000400be000000060007f82700078361005f
:1008c0000638e10004003a00f70720008783610042
:1008d0008703710001003a0003f0a200889fbe0068
:1008e0008a9fbe008c9fbe00470ade000480a100e4
:1008f000c71ade000580a1000700280007856000f8
:1009000087856100f70f20000720e1009e0032007c
:100910000728e1009c003200010678000400e00096
:10092000b4003200f7072000878060000170a0004b
:100930000500e000c0003200f70720008781610059
:100940000370a000050652000f003a000b50e100b2
:100950000b0032000308e10002003a000200e1004f
:100960007e003200020450008384580004003100ed
:100970000001fd008101fd008402fd008a05fd00eb
:100980006044b800210037000520e10005003d006b
:100990000001fd008101fd008402fd008a05fd00cb
:1009a000050652007a60e100050035000170a100e3
:1009b0004722dd00848070008a8070006300370069
:1009c0006044b800ef02660007ff2f0007066600cc
:1009d0000500e00006003400f08312008714dd00fb
:1009e0000511de00071bdd00060171008519de0020
:1009f0007060e10005003500090478008204780089
:100a0000030178008001eb00700656000b50e100f6
:100a100003003a00020040008380480004003700d1
:100a200060041400e0841c00020058008380580019
:100a30000188a300060032008100d1000080d300ad
:100a40008984d3000884d3000402e800270037001b
:100a50000178a30025003a000100e0000300320005
:100a60008186cf00698656000a0037008c0020007e
:100a70000000e00004003a000900780088047800d3
:100a80000004eb00700252008086cf000d06460085
:100a90000c06e9007060e100060035008000780077
:100aa00009007800880478000004eb007006560006
:100ab000700252000c00e0000c0034008c08dd00d5
:100ac000f00316000703de00868070000c00dd00d6
:100ad000074bde00060070008c4cdd000743de0093
:100ae000868474000c44dd000c0252006120e10099
:100af0002000350061016000070028008781640044
:100b0000f7ff270087836400070374000300e000f9
:100b10000600320082037300040032000000e80087
:100b2000e08048000188a3000e003a00f70f200083
:100b30000720e1004a003d000170a1004722dd00ce
:100b4000810072008a8070000000be004f06be0067
:100b50004f05be004f04be00000006006000b80054
:100b6000faff37008100d1000080d3000402e800c2
:100b7000eeff37000401780089017400a10107002d
:100b80008a807000f1ff3700f70107000702780044
:100b90000001fd008101fd00f301070087027800dc
:100ba000850372000778a300040032000001fd00f5
:100bb0008101fd0006020700e4ff370085036200a3
:100bc0000768a300080032000b50e1000300320068
:100bd000f0ff2f00f1ff2700dcff37000001fd00d0
:100be0008101fd00d9ff37000468a300d7ff320060
:100bf000faff3700f8ff2700888360000b003a00f7
:100c00000000e00009003a0083036400828373005f
:100c1000020032000200be00ccff37000b50e100a2
:100c2000ceff3a000200be00c8ff370014002000cb
:100c3000810064003eff3700f8ff270088836100d1
:100c400004003a000200e00002003a008c00780044
:100c5000beff3700150020008301640039ff370014
:100c600001f827000000200081007500b7ff370061
:100c7000889fbe008a9fbe008c9fbe001b00200084
:100c80000202be000586680006002800060666000f
:100c90004709de00f20fb200820032000243e80092
:100ca00080003200c729de00f30fb2007d00320061
:100cb0000343e8007b003200f107b2000170a0009e
:100cc000f507b2000570a000c708dd004903de008b
:100cd000868070004700dd00c72add004923de0062
:100ce000868272004722dd00030551000403500094
:100cf00085835800030031000000400081804800d7
:100d00000a05e9008c1f78008a9fbe00040050008d
:100d1000858058000402420085824a00000040009d
:100d2000818048000005eb000004be006033b8007d
:100d30000406be000d48e100560031001100090014
:100d40004dccd8000c01b8000d02b80084814100e0
:100d500060824a008283530003045c0084845c0048
:100d600060055d000a00e00025003a00800578007b
:100d70000d40e1004900310088007800070078004c
:100d8000110009004d88d8000c01b8000d02b80010
:100d90008481410060824a006003110083835b000c
:100da00004045c00e0845c000900e00021003a00db
:100db0004f01be000300e0002b003200e3016000a1
:100dc000070673008c81710001003200640070001e
:100dd0004200de004e5edd000c007000c258de00f6
:100de00001e0a00083010700cf017800818071003d
:100df0004f06be004f05be004f04be0000000600b7
:100e00008c8343000d044c00e0844c0060054d00d1
:100e10000000e9000a00e000d4ff32008c834300a8
:100e20000d044c00e0844c0060054d000000e9001a
:100e3000ceff37000c0343008d834b0060044c0051
:100e4000e0844c000000e9000900e000d8ff320017
:100e50000c0343008d834b0060044c00e0844c0085
:100e60000000e900d2ff37004200de004e5edd00e8
:100e70000c007000c258de0001e0a000cf01780035
:100e80000300e000daff320060001000e08018008c
:100e9000d7ff3700f0ff2f00aaff3700f0ff2f0029
:100ea000b9ff37000404be002f0107008706780051
:100eb0000004fd008104fd002b010700078366008c
:100ec0000678a300030032000960a7000800be00f6
:100ed0002c0037000d78a300020032000800be008d
:100ee000280037000778a30026003a0001f0a1008f
:100ef00009f0a1000668a30003003200f1ff2700fb
:100f0000f0ff2f00baff37000d68a3000300320086
:100f10000800be008c807000b5ff37000768a30092
:100f200007003a000648a30003003200f1ff270043
:100f3000f0ff2f00aeff37000d48a3000300320082
:100f40006000b8008c807000a9ff37000748a3003c
:100f50000400320001f82700000020008c8070009f
:100f6000a3ff3700760107000004fd008104fd00a7
:100f700002057800720107000802be008a017800ad
:100f800059ff37000160a000120220007240880063
:100f900097ff37000100e000120032000500e0007a
:100fa00010003200889fbe008a9fbe008c9fbe004a
:100fb0000006eb0001f8a3000300320060001000ff
:100fc000e08018000cf0a00005f8a3000300320038
:100fd00060021200e0821a000cf0a2008005eb0013
:100fe00041ff37006000b80002000500038368007d
:100ff0000700280007036300470ade000480a10001
:10100000c71ade000580a100f70f20000720e100cd
:10101000420032000728e10040003200889fbe00f5
:101020008a9fbe008c1f7800f107b200f307b20060
:101030000400e000640032000170a0000500e00040
:10104000680032000370a00085054200eb07b10084
:101050000204b8000302b8008484440060854a009a
:10106000020ab800848444000a854a00030ab800d2
:1010700004054500040033000804d0008984d20030
:101080000a85d2008b05e9006158e1003d0035007a
:10109000021020000901610003082000898161001d
:1010a000f70720008783640008867300c84cde00c1
:1010b000c853dd00878474004855de000300e0005b
:1010c0000600320082037600040032008904e80042
:1010d00060054d000a88a3000c003a00f70f2000bd
:1010e0000758e10044003d000a70a100c75ddd0023
:1010f0000a8575008a007300090078004f067800a1
:101100004f05be004f04be00000006000a05d100d6
:101110008984d3008b05e800f0ff3700881f780032
:101120000604780090000700070278000001fd0027
:101130008101fd008c0007008702780085037200a2
:101140000778a300050032000001fd008101fd00c9
:101150009f0007004f04780000000600850372001e
:101160000748a30003003200f0ff2f00f1ff270023
:10117000f8ff37000000200001f827008880700089
:10118000f4ff3700880178004848dd008081710055
:101190004848de00c850dd0001007000c850de0085
:1011a000060478000b0178001600070088807000a4
:1011b000d2ff37000500e0000500320017002000d4
:1011c0003a0007009dff370081037000f9ff3a00e5
:1011d000860078004f0678004f05be004f04be0021
:1011e0000000050083037100f9ff32002700200092
:1011f0002e00070094ff370001f82700868070005a
:10120000f4ff37000100e000260032006101110008
:101210007810e10023003c006022b8007010e1006b
:101220000400350080027800010078008000eb00a7
:10123000700151000200e000090034007003110049
:10124000062add00822ade008603dd008782720026
:101250000200de00860bdd00070070008208de0061
:1012600084817100f4ff2700048262008481710090
:1012700004002800848262006102600005f0a6007c
:101280000000060004827100070032000000e80040
:10129000e0804800000006000002be006000b800c8
:1012a000efff37006000b80000000600889fbe0016
:1012b0000004eb006138e10016003a000100e00094
:1012c00008003a00c800de004800dd008800200069
:1012d0000100e00003003a00c800de004800dd0025
:1012e000680444008184cf00e9845400060034007f
:1012f0008908dd00f08314008703de00878070001a
:101300000900dd0009044400610214004f04be001e
:10131000000006000300e00008003a00c811de00eb
:101320004811dd00880020000300e00003003a00bf
:10133000c811de004811dd00680444008384cf003a
:10134000e9845400060034008919dd00f08314009c
:101350008713de00878171000911dd000904440054
:10136000e1021400e9ff37002700200001f0a70088
:1013700017002000470bde00f60fb2000400320019
:101380000643e8000a0032004702b30000000600ee
:1013900001037800f607b2000603700002003a006d
:1013a0000703b300000006008702b3000000060038
:1013b00001037800f607b200060370000200320055
:1013c0000770a000000006000760a00000000600f3
:1013d0000478a300040032000578a3000300320063
:1013e0000168a30001003a000200be000160a000f5
:1013f0000000060081017000270032008002eb002f
:1014000001f8a3000300320060001000e080180023
:1014100015002000f40720000202420020003400e2
:10142000f703200087036000060420000003630028
:1014300002082000000161004700de00c909dd004c
:1014400000807100c708de000600e00008003200de
:1014500087037100060032001000b0000180b00068
:101460000188a30002003200c108de000402e80087
:10147000f107b200f30f20000320e10003003d005c
:101480004722dd00810072002900370001f82700a3
:101490000000eb00260037006000b80000000600e6
:1014a000680212007f20e100020034006000b800f2
:1014b0001f0037006011b8007020e1000400350003
:1014c00080017800010078008000eb00700252007b
:1014d0000400e00009003400f00312000719dd00e9
:1014e0008419de000703dd00868171000400de0040
:1014f000070bdd00060070008408de00f7ff270000
:1015000083836300870371000600280003036300e0
:10151000070032000700e00003003a0061016000ac
:1015200002817300020032001000b0000180b000a0
:101530000500a6000000060001f0a0000000060063
:101540004f0ade004709de00f107b200f20fb200d9
:101550000b003200f207b1000170a000c708dd00e7
:10156000c901de00838070004700dd000400a60092
:101570000000060060001000e08018000000060077
:10158000810f700001003a00000006008182cf0048
:101590000500e00010003e008082cf00ee82420095
:1015a0007028e1000400390007003e008000780048
:1015b0000000eb000e003700708312008600de0092
:1015c0000500dd000a003700708352008600dd0050
:1015d0000000eb0006003700e28252008508dd00c3
:1015e000708312000603de00868070000500dd00b7
:1015f0007507b0000501ea000400a600000006001f
:1016000060001000e080180000000600889fbe0007
:101610008a9fbe00841f78007c0007004f0078007e
:1016200011003300f0ff2f00838f6c0006003b0099
:10163000040565000a00a7000800370009f0a600ad
:101640001000200008003700820f5400838f5c00d8
:10165000030039001000200001003e0000002000bf
:1016600009f0a7000000ea004f05be004f04be00cd
:101670000000e00000000600881f780003047800e6
:101680000300e00007003d0060001000e08018004b
:1016900060011900e081190002003b0001f02d00fb
:1016a000030037000400070008f0a70001f0a000c5
:1016b0004f04780000000600889fbe008a9fbe008d
:1016c0000082700004027100048271002600320062
:1016d0000004be000200be006011b8006b092000cb
:1016e000950220000182cf000a0039000541b100b7
:1016f0000082cf00070039000541b1000982cf0008
:10170000040039000541b1000882cf000100390012
:101710000541b10005425200120032000a003b00b0
:1017200082817100610164008100d1000080d300da
:101730008984d3000884d3008b05e8000442e800c4
:10174000f7ff3a00070037000804440089844c0082
:1017500000004800818048008b05e9000442e90050
:10176000f9ff3a00030007004f05be004f04be001a
:101770000000060081002000618055000b003d0044
:101780000b00200061fe2f000100e1001d0034006d
:1017900082817100610164008904d1000884d30052
:1017a0000000e800faff3a007100200061006400c8
:1017b0000300700002006000090032006104440070
:1017c000e0844c000988a500050032008b05e80084
:1017d0006808e10002003a008904d1000884d300bf
:1017e000f20f20000258e10005003d00c75ddd005a
:1017f000f907b20089807500080078000000060033
:101800000bf827008b007800000005000004be00e4
:10181000f2fb07000003be000405be000200be008c
:10182000eefb0700844f750000000600f2874700ba
:10183000889fbe008a9fbe008c9fbe008e1f7800ce
:101840000003be000400200005f82f000002420043
:1018500081824a00f2ff2f00f3f72700820f520027
:10186000838f5a001b003600000140008181480030
:10187000e00f5100e08f590006003a000001be0061
:10188000dafd07000001be000000200001f82b0077
:1018900008003700e00f5000e08f580007003d00bf
:1018a00012022000e26988000001be0002fc07006d
:1018b0006011b800eefc070079003700020020003c
:1018c00003c02400c9fd07000003be007efe2f00f8
:1018d0000a003700820f5000838f580070003e00ce
:1018e0006000b8000200200003f82300820f5300bc
:1018f000838f5b006a0032000007eb00d0b02f003e
:10190000a10420000603400087834800fe07b100c1
:1019100087007800f107b20006007800324f2000ff
:1019200053f32300000041008180490002002000a1
:1019300003f82300d6b79f00e7b79f00defb070040
:101940000004be000200200003002400e3fb0700a7
:101950000001be000800be00c5fc07000002be007a
:101960000001be00f4b79f0085bf9f009ffd0700e8
:101970000006be000001be009cfd07000005be0081
:101980000200200003f023000800be0097fd0700be
:101990000801be0095fd0700b0b79f00c1b79f00ca
:1019a0005fb39700efb39700473bde0006004700a8
:1019b000cf80de0084fb070090b79f00a1b79f0097
:1019c000e29e2e0013e923000a00be0087fd0700f7
:1019d000a2aa2a00a3f22300c0fb07000001be0058
:1019e0000c00be0081fd07000006be0062e2290077
:1019f00083e723000a00be007cfd070032e12c00d3
:101a0000c3ec2300b5fb07000001be000a00be00c6
:101a100076fd07000001be000c00be00affb070012
:101a20000001be003fb09700cfb09700abfb0700ae
:101a30000001be007fb297008fba97000400be007d
:101a40006afd07000005be00127d2f0073712300a0
:101a50001fb09700afb0970064fd07000001be0003
:101a60000a00be009dfb07003fb19700cfb1970071
:101a700091fb07000801be0098fb07000004be00b0
:101a80000218270013f323001fb09700afb0970090
:101a900056fd07000001be000800be008ffb0700d6
:101aa0004f0778004f06be004f05be004f04be0032
:101ab0002f01b100000006000800fa00889fbe0058
:101ac0000004be000001be008300780001f0a10008
:101ad00008007800a4fd200095f42300840f500036
:101ae000858f580018003e00f2ff2f00f397230067
:101af000820f5000838f580011003e00f2ff2f002c
:101b0000f3072000820f5000838f580005003e002d
:101b100002002000033820000800be0033fd07004b
:101b2000040037000200200003b827000800be00b0
:101b30006afb0700c0bf9f00d1bf9f007100370044
:101b40000800be00680037004f49de000300200097
:101b5000143d2500b5072400840f5000858f5800e0
:101b60001f003e0034be2c0065012400840f50008d
:101b7000858f58000e003e000200e0000500320094
:101b8000b2fd200093fc23000800be0053fb0700b9
:101b900059003700b2fd200093fc23000800be006e
:101ba00045fb07005b0007000004be00550037003e
:101bb0000200e00005003200b2fd20009304240082
:101bc0000800be0045fb070046003700b2fd2000bc
:101bd000930424000800be0037fb070041003700d3
:101be000541d2300250e2400840f5000858f5800bb
:101bf0001d003e00f4dd2e00f50a2400840f500085
:101c0000858f58000c003e000200e0000500320005
:101c100042be2c00630924000800be002ffb070011
:101c2000e0ff370042be2c00630924000800be001c
:101c300021fb0700300037000200e0000500320001
:101c4000b2fd2000930c24000800be0023fb070017
:101c500025003700b2fd2000930c24000800be00d0
:101c600015fb070020003700f2ff2f00f3f72700d5
:101c7000820f5000838f5800040036000801be0018
:101c80000800be000cfb0700c7ff37006c8157003f
:101c90000800be004d0007006011b800630160003d
:101ca000e10f5100e08f590009003200e20f5100ae
:101cb000e08f590009003200e00f5100e08f590019
:101cc0000b003a002fb89700bfb897000600370006
:101cd0002fb89700bfb89700b2ff37002fb8970012
:101ce000bfb8970001f0a20091000700aeff3700d7
:101cf0002fb89700bfb89700060007000004be0089
:101d000009f0a2000800be004f04be000080fa00e7
:101d100000000600889fbe008a9fbe008c9fbe0008
:101d20000001be00b1fc07000004be000001be00bf
:101d3000aefc07000005be000200200003f02b00ef
:101d40000800be00a9fc07000200200003f82300e1
:101d5000e2fa07000006be00f2a92a00a3d223007f
:101d60000a00be00a1fc07000001be000c00be007e
:101d7000dafa07000006be000801be000a00be0035
:101d80009afc07000005be0072a12900c37c230055
:101d90000800be0095fc0700f243200063ab23005f
:101da000c5fa07000001be000a00be008ffc070054
:101db0000001be000c00be00c8fa07004f06be00be
:101dc0004f05be004f04be00000006000800fa00e8
:101dd000889fbe008a9fbe008c9fbe000005be008b
:101de000020478000001be008300780001f0a10029
:101df0000a007800a2fd200093dc2400820f50002e
:101e0000838f58001d003e0032982f0023f22300dc
:101e10000a00be0075fc07000200200003b4240085
:101e2000aefa07000200200003b42400a2fa070063
:101e30000006be0028fa070080047800a2fd2000fa
:101e400093fc23000c00be0068fc07000001be00ec
:101e50000a00be0098fa07000005be00325a2800aa
:101e6000832823000c00be0060fc07000001be00b8
:101e70000a00be0090fa070026003700f2ff2f008c
:101e8000f3f72700820f5000838f580006003600ba
:101e90000a01be000a00be0087fa0700008cbe00df
:101ea0008004eb001c0037000a00be005000070051
:101eb0000005be0032982f0023f223004bfc0700e0
:101ec0000200200003f0230084fa07004c070700fb
:101ed0000203be000002be00e4b79f00f5b79f00fa
:101ee00086bf9f0097bf9f00e3fd070032982f0039
:101ef00023f223005efb07000001be000a00be00c3
:101f00006dfa07006000b8002004980031049800c2
:101f1000efb49700008cbe00090078004f06be00a9
:101f20004f05be004f04be000080fa00000006000e
:101f3000889fbe008a9fbe008c9fbe000005be0029
:101f40000001be0029fc07000004be000a01be001b
:101f500026fc07000006be004288280083c023003c
:101f60000800be0021fc0700b2aa2a00a3e2230059
:101f700051fa07000001be000c00be001bfc070068
:101f80000001be000a00be0054fa07000005be00b2
:101f90000801be000800be0014fc07000001be00de
:101fa0000c00be0011fc07000006be00c2c32600e4
:101fb000636323000800be000cfc0700f27c2000d5
:101fc000039523003cfa07000001be000c00be0090
:101fd00006fc07000001be000a00be003ffa070031
:101fe0004f06be004f05be004f04be0000000600b5
:101ff0006022b8006033b8000002be00f0ff2f007e
:10200000f1ff2f00f2ff2f00f3ff27000000620016
:10201000818062000201630083816300000006008a
:102020000000fa0068815700cfb8970074030700da
:102030000080fa00000006009600070074033700d5
:102040008001780002003700b15978000201e900f0
:102050000200e000fcff3a0000000600889fbe007e
:102060008a9fbe00800478000200e0005b0032001e
:1020700001407800814c780082814400f1f99f0092
:10208000e20f51005500360091449800a144980099
:10209000e1f99f00d1f99f00e60f51004f00360093
:1020a000b1449800c1f99f00e80f51004b00360081
:1020b0000905ea00630565000a8444000a05510029
:1020c000c1ff2f00010565000080fb008000eb00d0
:1020d0001210200013102000f2060700008cbe0032
:1020e0000a01440060b99f0071b99f00e80f5500d4
:1020f0003a0036002004980031049800400498000b
:102100005104980020b99f0031b99f0040b99f0049
:1021100051b99f00f80f5500300036006004980058
:1021200071049800000c9800110c9800200c980085
:10213000310c9800400c9800510c980020b19f0081
:1021400031b19f0040b19f0051b19f0060b19f002d
:1021500071b19f0000b99f0011b99f006401640034
:102160007801410002044400020555006011b800e6
:102170000203be000002be000403be006022b800dd
:10218000000072008180720002017300838173007d
:1021900010003700009cbe000294be00400498006e
:1021a000510498006204980073049800000c980091
:1021b000110c9800220c9800330c9800400c9800e9
:1021c000510c9800620c9800730c98000a02b10040
:1021d0000802b000ff0f5500eeff3e000900780036
:1021e0004f05be004f04be0000000600889fbe00e1
:1021f0000004be00080078000d0007000000440045
:102200008900780003000700080078004f04be0032
:1022100000000600881f780000047800080078009d
:102220003c050700080078004f0478000000060015
:1022300080007800040037003104e00002003a001a
:102240000000510000000600010178000108a30011
:10225000f9ff3a008101780031017800f4ef2f0096
:10226000020242000281ea00020162000408280022
:1022700004016100f7ff320083007800010178005b
:102280003104e000fdff3a000000510000000600ac
:10229000000006004200fa00889fbe008a9fbe0030
:1022a0008c9fbe0020079800110f9800034f9800e4
:1022b00011007800400f980091009000610f980085
:1022c0009e099000a3019000330f98001e0a900011
:1022d00044029000140798009e0a9000b5029000f6
:1022e000052798003204be002205be006022b80017
:1022f0006033b8000800be000a01be00eb0507000d
:102300000000e00003003d000bf0a200d0c2b300cb
:10231000040037004e0b90000628a300090032008d
:10232000b0c2b3008e239000804b78003e0890002e
:102330000000e900700f980011002000510f980074
:10234000100037004e0990000238a3000900320047
:1023500000c2b3008e219000804978003e0a9000b0
:102360000402e900740f980015002000550f980032
:10237000040037003e0b9000760f98008003eb00be
:10238000570f98000800be000a01be00c0ff0700fa
:10239000f4ff2f00f5ff2f00f6ff2f00f7ff2700b7
:1023a000040260008582600006036100878361008b
:1023b0006000b8000200200003ff27000020e100b9
:1023c00001a8e10002b0e10003b8e10011003a0009
:1023d0000e4890008000fb001104b1000e21900017
:1023e000de09900003004100f98f500002003e001a
:1023f000c1d220000100370001d3200085ff070073
:1024000000d320008aff07005e0a9000040140000c
:10241000150037000020e10001a8e10002b0e10052
:1024200003b8e100130036008e4a90008500fb00df
:102430001104b1000e239000de0b90000700430052
:10244000f98f500002003e0041d320000100370008
:1024500081d320006fff070080d3200074ff0700a6
:10246000de089000010140004e0a9000be09900075
:10247000500237006022b8006033b8000800be0088
:102480000a01be00890507000000e0006a00320072
:102490006022b8000600200007ff230044179800c0
:1024a0005517980066179800771798008006eb007c
:1024b0000800be000a01be00001f9800111f98000e
:1024c000221f9800331f98000e2690000700370047
:1024d0008d06e8000802be000a03be0044179800fb
:1024e0005517980066179800771798006022b80073
:1024f00006002000470224004e109000de109000dd
:102500006e119000fe119000ec0607000004be0062
:102510000205be000002be000203be000e189000bd
:102520009e1890002e199000be1990005f050700bc
:102530000000e000e6ff3d000c2798000006eb00dd
:102540004e149000de1490006e159000fe15900061
:102550002500370040ed2f00808f560019003d0008
:102560000c00e00016003a006022b80006002000cf
:10257000073524000e1890009e1890002e19900028
:10258000be199000cd0607000002be000203be0087
:10259000041f9800151f9800261f9800371f9800e9
:1025a0006022b80006002000073524000800be00a5
:1025b0000a01be00c10607000004be000205be00fd
:1025c0001c0020006022b800060020004702240002
:1025d0000800be000a01be00090607000004be0094
:1025e0000205be008d06e9000802be000a03be0017
:1025f0000e1890009e1890002e199000be199000a1
:102600002a0507000000e000d2ff35000800be00e8
:102610000a01be00401798005117980062179800f1
:10262000731798000e1c90009e1c90002e1d9000a9
:10263000be1d9000080037006022b8000600200090
:1026400007ff230044179800551798006617980055
:10265000771798008006eb008e4a90000500fb007b
:102660004c040700104f98006e0b90006000200093
:102670000600e000010035006e08900071c6b3004e
:102680009e4b900081cf53000a003a00ee08900064
:102690000100e000cf013200cf0137008d0f500064
:1026a000d3013c00001f980052c6b300425f98005f
:1026b0001e0037009e499000435f980002003700db
:1026c00064c6b300445f98000000e800001f980053
:1026d00060c6b300ce5a900080cf520013003a007b
:1026e0000d00e00008003d006000b800020020007e
:1026f00003ff2300401798005117980062179800b5
:10270000731798008006eb0061c6b300415f980024
:1027100070c6b3001e499000804f51000300320084
:102720008e1990008d814100031f98004e12900079
:10273000de1290006e139000fe139000441f98006c
:10274000551f9800661f9800771f98000800be006c
:102750000a01be0000179800111798002217980070
:10276000331798000006eb000802be000a03be0003
:10277000540798006507980076079800070f98009f
:10278000310037004e1a9000de1a90006e1b900048
:10279000fe1b90000e1090009e1090002e119000d5
:1027a000be11900096050700ee0707000004be006a
:1027b0000205be00e604070080027800250f98009d
:1027c0004e1a9000de1a90006e1b9000fe1b9000c7
:1027d0000800be000a01be00380607000e12900075
:1027e0009e1290002e139000be1390003305070038
:1027f0000002be000203be0007f0a200041798000a
:102800001517980026179800371798006022b8000f
:1028100006002000470224004e189000de189000a9
:102820006e199000fe199000750507000002be00a9
:102830000203be00441f9800551f9800661f9800b1
:10284000771f98000c06e8008e1a9000850f56003e
:10285000ccff35005e049000ee0490007e059000f1
:102860008e0d90006022b800060020004701240071
:102870004e189000de1890006e199000fe1990001e
:102880000e0607000002be000203be00441f9800af
:10289000551f9800661f9800771f98000e10900033
:1028a0009e1090002e119000be1190007f04070032
:1028b0000000e0000f0035004e1a9000de1a900074
:1028c0006e1b9000fe1b90000e1090009e1090005a
:1028d0002e119000be119000740407000000e0006b
:1028e00011003a00ae0a90000508a300080032006b
:1028f0000d0037006000b8006011b800401f98005c
:10290000511f9800621f9800731f9800060037003f
:102910006022b8006033b800441f9800551f98002b
:10292000661f9800771f98004e1a9000de1a9000dc
:102930006e1b9000fe1b90000800be000a01be0046
:10294000e40407000002be000203be000417980062
:102950001517980026179800371798006022b800be
:1029600006002000470224004e109000de10900068
:102970006e119000fe119000d00507000004be000b
:102980000205be000002be000203be000e10900051
:102990009e1090002e119000be1190004804070078
:1029a0000000e000090035008d06e80060c6b300b5
:1029b000ce5a900080cf520008003a000e1b9000c3
:1029c0000603e800061f9800110037004e1490001f
:1029d000de1490006e159000fe15900050c6b300f6
:1029e0004e599000804f510009003a000802be0085
:1029f0000a03be00441f9800551f9800661f9800e8
:102a0000771f98008002eb004517980007003700f9
:102a10000800be000a01be00401f9800511f980028
:102a2000621f9800731f98004d1798005e0e90006b
:102a30000001eb00220f980032079800520798001f
:102a40000d0f78006a0037004e1a9000de1a9000d1
:102a50006e1b9000fe1b90000e1090009e109000c8
:102a60002e119000be119000e50407003d070700fd
:102a70000004be000205be0035040700e90f500047
:102a80000100340090002000ce0990000348a3000c
:102a90000c003a000000e0000a003a0071c6b300e2
:102aa0001e4a9000814f520006003a00ce1290005c
:102ab0000500e00003003d002e0b90008606e800b4
:102ac00023003700be0390000700e0000c003a002e
:102ad000ce1090000100e00009003d00e1c2b3000b
:102ae0000e21900001717e000c06e800fe099000a6
:102af0008301e900730f9800140020003407980048
:102b00008e2290000c814200ae0e9000850178006c
:102b10000300370001c3b300015978008d06e900b6
:102b20000d00e000fbff3a00032798002e0b9000f9
:102b3000060646000043b00080717e000c06e800e7
:102b40000680ea00fe0b900080834300770f980018
:102b50004e1a9000de1a90006e1b9000fe1b900033
:102b60000800be000a01be00540507000e129000c6
:102b70009e1290002e139000be1390004f04070089
:102b80000002be000203be0007f0a2000417980076
:102b90001517980026179800371798006022b8007c
:102ba00006002000470224004e189000de18900016
:102bb0006e199000fe199000910407000002be00fb
:102bc0000203be00441f9800551f9800661f98001e
:102bd000771f9800ce1290008502e90045179800f3
:102be0005e0390000603e800560798002d0f98003a
:102bf000de0390000e189000808f530005003d000a
:102c00009e0890004100900065005000800f560023
:102c10008dff39009e0678003e0190000200e00022
:102c200007003a00ce0990000348a30004003200d8
:102c3000e0c2b3000e22900000727e000c06e80095
:102c40008e2290000c8042000048eb0051c6b30079
:102c50004e5b9000814f530038003a009e03900075
:102c60008700e9000041eb0082f278008001eb0070
:102c70000d00e00002003d008d06ea001300200078
:102c80002200200001037800fe0a90008e239000ad
:102c9000000478000a00370001037800a400200037
:102ca000110009008406d80001027800800678002f
:102cb0000443b00084737b000201e9008502e9004f
:102cc0008600e9000d00e000f3ff3a000200e0009a
:102cd000f1ff3c00750f9800072798000800780066
:102ce00001824300b2c2b3000300e00001003200e1
:102cf000d2c2b300024a78000101e9008e2190009f
:102d0000828041008e4a90000502fb001404b1004d
:102d100053c6b300f90f520001003e0053c4b30084
:102d2000834878007e0b90000683e900760f9800b8
:102d3000820f560001003d0036fd0700ce0b9000cb
:102d400063806300e20f500015003a007e08900097
:102d50000000e000120034000e20900034fd070057
:102d60008e219000040037007e099000828041008f
:102d7000e37078000000e900de0a9000850f500043
:102d8000f9ff3d0003279800058041007e0990006f
:102d900001032000b1fc07000003eb00360f980090
:102da0000e20900022fd07004e0a9000be09900000
:102db000000178008e2090002e0090004600070051
:102dc0004f06be004f05be004f04be000080fa0053
:102dd0000000060010002000e48f46002ffe3d009a
:102de000001f980057c6b300475f98004ffe37009a
:102df0000d00e00032fe3500001f980042fe370053
:102e00008201780001017800f1ff27006802370095
:102e1000881f78000004780000082000808f500090
:102e20001700350010082000808f50000b00340080
:102e300030082000808f500011003a009200780086
:102e400068805000000978003002be002003be00f8
:102e5000049cbe000694be00070037009202780072
:102e600064805200000978001000be0019030700ba
:102e7000009cbe000294be0010002000010037003c
:102e80000000eb004f04780000000600889fbe00a1
:102e9000000478004800900082047800808f54007d
:102ea0000100360080047800090178005800900085
:102eb00063fc07005800900009004000500498008f
:102ec000c800900089845000490498000048eb0035
:102ed0004f04be0000000600f2874700889fbe0036
:102ee0008a9fbe008c9fbe008e1f780080047800f1
:102ef000010578000204780083057800610762000c
:102f000002003a008b0f54000800390008017800d5
:102f10008a00780009007800dcff07008b0f54005e
:102f200002003900880578001e0037000886550029
:102f30000c017800f00f560001003600020120005d
:102f4000010220007e80570044fc07008c067800b8
:102f50000500370002012000fe80570009007800bc
:102f6000caff0700f0865600ef8f5600f9ff3e00bb
:102f70004461de0000ff2f000091b900020146000d
:102f8000fe80570009007800c0ff07000e00e00037
:102f900004003a00080178008a00780009007800ef
:102fa000baff07000b0078004f0778004f06be00fd
:102fb0004f05be004f04be002f01b1000000060007
:102fc0000000050000000500000005000001780079
:102fd0000040eb008080fb008180400043d0200057
:102fe00063c278000404e00003003a0050d02000df
:102ff00060c078000000060092017800934f5200f4
:1030000004003a0050d0200060c078000309e800b6
:10301000010037000040e800ea4f5000edff3600a5
:1030200000000600f6874700889fbe008a9fbe000a
:103030008c9fbe008e1f7800000578000104780088
:1030400083057800040678000000eb00c0b79f00fd
:103050008080eb00d1b79f00e0b79f00f2b79f00e0
:103060000008200080bf9f009800780001007800d1
:103070008004eb00010037008904e800304178004b
:103080000204e0000300320053c2b300834f51003a
:10309000f9ff3a000900e00004003200090178005d
:1030a0000a00780079ff0700188c440018077800a0
:1030b00050c2b3009e4f10003f013a000e07e800d7
:1030c0000e0c780010003700cfb097000100a00070
:1030d0000b003700cfb097000110a00008003700a8
:1030e000cfb097000120a00005003700cfb09700b7
:1030f0000130a00002003700cfb097000140a000cf
:10310000c1b79f00000ce8001800780090407800dc
:10311000b2c2b30082cf5000f1ff320007003c0082
:1031200002c2b30082cf5000f0ff320032c2b300bf
:1031300082cf500007003a00efff3700d2c2b30041
:1031400082cf5000e0ff320002c3b30082cf5000b4
:10315000e0ff3200a2c2b30082cf50000d003a005f
:10316000000ce8001c80e900000e780010007800d8
:10317000e0b79f000000e0000f003d00cfb09700d7
:103180000100a200c1b79f000000ea00e0b79f0065
:103190000900370039010700e0b79f000100370040
:1031a000000ce800180078009000fb000103b1005b
:1031b000e98f5000faff36004fb097000008a300d7
:1031c000020032000010a100c0b79f001800780074
:1031d000e1c2b30090cf100016003a008000eb006f
:1031e000d1b79f000000e800000c7800a1c2b30036
:1031f00090cf100006003a00000ce8001c80e900a7
:10320000000e780010007800d0b79f00090037004a
:103210001a010700d0b79f0001003700000ce8003a
:10322000180078009000fb000103b100e98f500006
:10323000faff36000800780064ff07008046780037
:10324000180078001000fb005201070091062000d2
:10325000810f50003800320012003c00410620006f
:10326000810f5000340032000a003c00110620009b
:10327000810f50002000320031062000810f5000e5
:10328000a000320051022000810f5000bc003a0023
:10329000b400370071062000810f5000b8003c00d8
:1032a0008800370001072000810f50005c003200c9
:1032b00007003c00e1062000810f50007a00320038
:1032c000f1062000810f5000ad003a0039003700b0
:1032d00051072000810f5000270032008107200095
:1032e000810f50004200320031072000810f500052
:1032f000a3003a008f0037008d80fb000c0178009e
:1033000000fe2f000f004000c1fe07000000e0009b
:10331000a800320018007800000ce8009041780006
:1033200002fe2f000f014100f88057000a007800cc
:1033300024ff07000e0037008d80fb008c01780011
:103340001200200000fe2f000f0040003d0107008a
:103350000000e00097003200180ce80002fe2f0089
:103360000f014100f88057000a00780014ff0700a1
:1033700080844400900037008d80fb008c01780031
:103380000001eb0000fe2f000f0040002d010700a0
:103390000000e00087003200180ce80002fe2f0059
:1033a0000f014100f88057000a00780004ff070071
:1033b000efff37008d80fb008c0178000001eb00ef
:1033c00000fe2f000f0040001e0107000000e0007b
:1033d00078003200180ce80002fe2f000f014100b7
:1033e000f88057000a007800f5fe0700e0ff37007c
:1033f0008d80fb008c0178000001eb0000fe2f00a7
:103400000f0040000f0107000000e00069003200db
:1034100018007800000ce800904178001c0037008c
:103420008c0178000001eb00010f200000fe2f004e
:103430000f004000030107000000e0005d003200c3
:10344000180ce8000fb097009fb097002fb19700bd
:10345000bfb19700e00f5000e08f5800e00f590017
:10346000e08f590009003a00cfb597006fb497007c
:10347000c0cf20006efb07000b02780088017800a7
:1034800000017800c1cf20004700370083c7b30098
:1034900002fe2f000f014100f88057000a0078005b
:1034a000c8fe0700b2ff37000b8144008d80fb008f
:1034b0008c01780000fe2f000f004000350107004e
:1034c0003c0037008d80fb000c01780000fe2f00cf
:1034d0000f0040004efe07000000e0003500320003
:1034e00018007800000ce8009041780002fe2f00e0
:1034f0000f014100f88057000a00780065fb0700c3
:103500009bff370000c8b30080cf560029003a0067
:10351000180ce8001c80e900000e780010407800cc
:10352000e0df9f0013002000e2fd2f000f014100ab
:103530000800370000c8b30080cf56001d003a00d5
:10354000180ce8001c80e900000e78008001eb00f8
:1035500010017800f88057000a0078009afe0700f2
:1035600083ff370000c8b30080cf560011003a0037
:10357000180ce8004fb29700efb197000800370031
:103580000e0c78000000eb00c0b79f00e0b79f0072
:103590000080eb00d0b79f000002eb0084017800b0
:1035a0001200200021d020000a0078004afe070007
:1035b0006fff3700180ce800090078004f0778000b
:1035c0004f06be004f05be004f04be006f01b100a4
:1035d000000006008200fa00889fbe008a1f780063
:1035e0000005780082047800c13f9f000004eb00d2
:1035f000100037000902780088017800a2f72f0038
:103600000f01410081f72f008f8040000a007800f1
:1036100084fe070008004000880f500004003d00b1
:10362000b0042000e06988000084eb00040037004b
:10363000000478004f3897001004e000edff3a00d6
:10364000080078004f0578004f04be000080fa00a3
:103650000000060080007800100020000202200018
:10366000828f500004003200e9805000e48f500047
:10367000010036000000eb0000000600889fbe003d
:103680008a1f7800000578000a04780098447800c2
:103690000805e8000900fb00eeff07000000e0005d
:1036a000f9ff3a00b0c2b30080cf540005003200e9
:1036b000d0c2b3008000eb0080cf540005003a0078
:1036c000020037008000eb000100370011002000ed
:1036d0000804e8000000eb00030037006a02b900ac
:1036e000020052000003b0003801fb0003fd2f0070
:1036f00082814100e98f5100f8ff36000100e000af
:1037000001003a000000ea004f0578004f04be00b7
:103710000000060001017800800178000082680046
:103720000408a3000500320013003700324078007f
:10373000805978000004e000140032000302780091
:103740000208a300f9ff3a000300780001003700e7
:103750000318780082007800b2017800f5ef2f009e
:10376000838242000382ea00048262000508280086
:1037700005026200f6ff3200000278003141780055
:10378000025878000204e000fbff3a0004007800d1
:1037900000000600f1fb2f0080804000f98f5000f0
:1037a00001003e000050a00000000600f9ff3700b5
:1037b000f28747008e1f780002027800030178002c
:1037c0000000e0000200320000077800010037002e
:1037d000728757008002eb000100e0000100320018
:1037e0008102e90070805700060009000018eb0014
:1037f0000080eb0080bf9f002310200093bf9f003c
:10380000aebf9f00b1bf9f00c5bf9f000100e00099
:1038100003003d00b1042000e16988000600370084
:10382000004feb00eebf9f00debf9f0084007800da
:10383000708057008f0007004f0778002f01b100fc
:103840000000060084082000848f50001d00320014
:103850000d003c0014082000848f50002700320027
:1038600002003c0004082000040037002408200067
:10387000848f50003400320044082000848f5000b0
:1038800043003a0036003700040a2000848f5000bd
:103890002700320004003c0004092000848f5000ff
:1038a0003b003a0028003700020c2000828f5000b5
:1038b0002f003200020f2000828f500034003a00a7
:1038c0002b0037009380e9000200e0000500320081
:1038d000810978001102fb00cfa2de00612bb90044
:1038e0002800370081097800114278000482fb002b
:1038f0008002eb006033b80022003700130278002a
:10390000e40052000200e000050032008109780066
:103910001102be004fabde008603780019003700ad
:10392000810978001102be006033b800150037002d
:103930009380e9008109780011027800cfa2de00af
:10394000612bb9000f00370093027800e880520025
:10395000810978003102be002103be000900370052
:103960009380e9000200e00002003200f1ff37001e
:103970009380e90081097800110278008002eb0051
:103980006033b8000498be000690be001000050029
:103990000000050044082000848f500025003200fc
:1039a00008003c0014082000848f500014003200ee
:1039b00024082000848f50002400320004082000d6
:1039c0000c00370004092000848f50001f003200d3
:1039d00004003c0084082000848f500024003a003a
:1039e0000e003700040a2000848f500011003200be
:1039f000040c2000848f50001d003a000d00370099
:103a00009380e9008109780091007800010878002e
:103a1000cf91de008288be00140037009380e90059
:103a200081097800910078000108780082487800c8
:103a30000e0037009380e90081097800910078003a
:103a40000108780082087800080037009380e900b8
:103a50008109780091007800010878006112b900ae
:103a6000612bb9008498be008690be00100005004e
:103a7000000005000200fa00881f780000047800aa
:103a8000e2bf9f006481570008007800d1fe070064
:103a9000980090000148a300010032000080eb0074
:103aa0004f0478000080fa00000006008f1fd1004c
:103ab000a30207008f87e9000000e0000000060075
:103ac000809feb009e0207008f87e9000000e00066
:103ad000000006008103780040f307000001be00eb
:103ae0006000b8000478a30013003a006220e100ef
:103af00015003e000d0039008301d1000281d30082
:103b00008180d3008301d1000281d3008180d30062
:103b10008301d1000281d3008180d3000538b00039
:103b2000c42add00f300b2008381720007f0a70011
:103b300003f0a0000000060083ff27000200200021
:103b40006110b900f9ff370003ff2700f7ff3700c6
:103b50001400fa00889fbe008a9fbe008c9fbe00a2
:103b60000004be000205be00680047000a90be00c7
:103b70000890be00ad0207000070a7000bf0a10086
:103b8000304320009e02900080825200b0fe2f0041
:103b90000028e10011003d00b0fc2f000028e100ea
:103ba000150034001e0990008e0890007e009000e1
:103bb0000501b0000201d1008180d3000080d30054
:103bc0008502e800fbff3a000b00e000d2023b0058
:103bd00060001000e0801800cf023700f0ff2f00d7
:103be000f1ff27000b00e000cb023b0001002800a2
:103bf00000002000c80237006000b800c60237008d
:103c00000003be00f5f207006011b8000470a700c1
:103c100007f0a1006509b1001b0032001200350059
:103c2000860220000628e10008003500f3ff270087
:103c3000f2ff2f006110b9000700e00018003b0000
:103c4000030028006000b8000200050000004000ea
:103c50008180480002014900838149008502e90012
:103c6000faff3a0008003700f88f420002003c00db
:103c70008000eb00000005008100d1000080d3002f
:103c80008502e800fcff3a000700e00004003b006a
:103c900060001000e080180060011900e081190048
:103ca00000000600020ab900001bb9000200b800bb
:103cb0008100420081004300000006008c9fbe008e
:103cc0008a9fbe00889fbe00ca0107000bf0a200b9
:103cd000040037008c9fbe008a9fbe00889fbe00f4
:103ce000c40107000c48e1000b003a000c40e10061
:103cf000020032008b010700400037008b066d0088
:103d00003e0032000af0a100f3012000f2ff2f0074
:103d10006110b900390037000c40e1003700320073
:103d20000940e100010036007e0107008a856d0030
:103d3000cf5dde000b0575000006eb008804fd007a
:103d400089045400010032007d0107000a04e000ec
:103d500011003a000800e000280032000400400092
:103d60008580480006014900878149000358a30067
:103d7000180032008301d1000281d3008180d3007a
:103d80000080d3000c86d300010039006106760064
:103d90000804e8001800370004005000858058002f
:103da0000601590087815900060031000af0a2007f
:103db0000c06ea0060001800e0801800600119009d
:103dc000e081190003003a000004eb000005eb005d
:103dd0000a0037000348a30007003a000c0646001b
:103de00000004800818048000201490083814900a9
:103df0000804e900f7ff3700af013700c9013700b9
:103e00008c9fbe008a9fbe00889fbe00790107007c
:103e10000b056d000940e1000a003a000800e000cf
:103e2000020032000c40e10006003a000af0a10056
:103e30000c047800f3012000f2ff2f006110b9009c
:103e40009d0037000c40e1009b0032000800e000bc
:103e5000990032000c48e10002003a000004eb0037
:103e6000030037000900e00004003a000c04780069
:103e70006000b8006011b8008f0037000348a3004d
:103e800006003a000000400081804800020149001d
:103e9000838149000804e900f8ff37000748a300c0
:103ea00006003a000402420085824a0006034b00e5
:103eb00087834b008904e900f8ff3700fd3f2000ad
:103ec0008d845400090454008a1f7800881f7800ec
:103ed00000047800810478000205780083057800ea
:103ee0006000b8006011b8000d0420000500370024
:103ef0000804440089844c000a054d008b854d0060
:103f0000080031000404540085845c0006055d004f
:103f100087855d008381d2008d06d300f4ff3b00ce
:103f2000070037000404440085844c0006054d005a
:103f300087854d008381d2008d06d300ecff3b00c6
:103f40000804440089844c000a054d008b854d000f
:103f5000080031000404540085845c0006055d00ff
:103f600087855d000281d2008d06d300f4ff3b00ff
:103f7000070037000404440085844c0006054d000a
:103f800087854d000281d2008d06d300ecff3b00f7
:103f90000804440089844c000a054d008b854d00bf
:103fa000080031000404540085845c0006055d00af
:103fb00087855d008180d2008d06d300f4ff3b0031
:103fc000070037000404440085844c0006054d00ba
:103fd00087854d008180d2008d06d300ecff3b0029
:103fe0000804440089844c000a054d008b854d006f
:103ff000080031000404540085845c0006055d005f
:1040000087855d000080d2008d06d300f4ff3b0061
:10401000070037000404440085844c0006054d0069
:1040200087854d000080d2008d06d300ecff3b0059
:104030000b00e00004003d000404440085844c00b3
:1040400006054d0087854d000006eb008301d10079
:104050000281d3008180d3000080d3000c86d3007e
:104060008301d1000281d3008180d3000080d3007e
:104070000c86d300890474008b0575008b84740052
:1040800001003200610676004f0478004f05780089
:104090000348a30007003a000c0646000000480051
:1040a0008180480002014900838149000804e90039
:1040b000f7ff3700000137001a0137008c9fbe0060
:1040c0008a9fbe00889fbe00ca0007000b056d00d6
:1040d0008a0578000c40e10008003a000900e00081
:1040e00082003a000af0a1000c047800f3012000dd
:1040f000f2ff2f006110b9007c0037000c48e1008e
:1041000004003a00870007000900e00077003a0049
:10411000f4ff37000800e000740032000900e000fe
:1041200002003a007f00070070003700ed3f2000da
:104130008d845400090444008a1f7800881f780089
:10414000871f7800861f7800851f7800841f7800fd
:10415000cb19dd00c515de008b8571004b11dd002c
:10416000450dde000a057100cb08dd00c504de0048
:10417000898470004b04dd000440b8000546b80097
:104180008c80400060814e00044eb8008c8040005e
:104190000d0149008001eb000318ad000456b80082
:1041a0000c0141008d8149000002eb000420ad00ac
:1041b0000646b8000c0141008d81490060024a00aa
:1041c000054eb8000c0141008d81490060024a0093
:1041d0000556b8008c8141000d024a008002eb00b8
:1041e0000528ad000746b8008c8141000d024a0049
:1041f000e0824a00064eb8008c8141000d024a0060
:10420000e0824a004f0678000c5eb8008c814100c5
:104210000d024a00e0824a000656b8000c02420035
:104220008d824a000003eb000630ad00074eb80057
:104230000c0242008d824a0060034b004f0678005a
:104240000c5eb8000c0242008d824a0060034b00f5
:104250000756b8008c8242000d034b008003eb0030
:104260000738ad004f0678000c5eb8008c82420023
:104270000d034b00e0834b004f0678000c5eb80046
:104280000c0343008d834b004f0478004f057800ea
:104290000748a3000a003a0000004000818048005f
:1042a000020149008381490004024a0085824a00d4
:1042b00006034b0087834b000804e900f4ff370036
:1042c0000306780080807000828070000100320058
:1042d0006106760087017800060178008500780085
:1042e0000400780088047800780037008d003700db
:1042f0008c06460002003a000000a60000000600fe
:1043000060004800e080480060014900e081490009
:104310000350a600000006008301d1000804e80055
:10432000000006000002fd008102fd000203fd0006
:104330008303fd008804fd008a05fd0000000600df
:104340007048e1001a0039007d0320000d48e100ab
:104350000a00390081057000830671008c857500a4
:104360008d8575000006eb000cd8e700610676002d
:104370006000b8006011b800000006007048e1005d
:104380000b0039008c0578000006780001007800e9
:1043900082007800030178008001eb0003d8e70079
:1043a00061067600f0845400f4ff3a000000060035
:1043b0006160e1000c48ad00f08514008b06dd0063
:1043c0000966de000d0676008b0edd000900de00ba
:1043d0000d0070008b16dd008908de008d807000f6
:1043e0008b1edd000911de000d0171008919de0050
:1043f000000006000d002800fc7f20000d856100f4
:10440000441cde00ef8161000c04640001003200f6
:104410000340a0008d856300c43cde00ef83630091
:104420008c846400010032000740a0000c40e100d1
:1044300006003a00ef86610082867600818676006b
:104440008086760001003200180037000c48e10039
:1044500007003a00ef866300868676008586760040
:104460008486760002003200aeff07000f0037009e
:104470000348a30005003a0081067000828676009a
:1044800083867600010032000804e8000748a30094
:1044900005003a00850672008686760087867600db
:1044a000010032008904e80000000600cf04780013
:1044b000cf0578001b0037000002780081027800e9
:1044c0000203780083037800880478000cf0a700ca
:1044d00087ff0700fd7f20000d40e100040035004c
:1044e0000d0478006000b8006011b8000d003700be
:1044f0000800e0000b003c00040078008500780014
:104500000601780087017800e18414008cff070021
:104510000cf0a70076ff07000004eb000340a700a3
:104520000804e8004444dd006fc56100880175009f
:104530004f04be004f05be004f06be00000006003f
:10454000889fbe008a9fbe008c9fbe000404be00f0
:104550000605be00809fbe00829fbe0021000700ae
:10456000040678000800be000a01be001d00070016
:10457000840678004f03be004f02be008d4f7600c8
:104580007fb0970013003300f0ff2f008b8f6b007c
:1045900006003b000d0666000c00a7000a0037006d
:1045a00007f0a600100020000a003700880f520014
:1045b000898f5a008a0f5b008b8f5b0003003900e4
:1045c0001000200001003e000000200007f0a700be
:1045d0000000ea004f06be004f05be004f04be00bb
:1045e0000000060005ff2700058261000700320079
:1045f0000428e10001003200240005000600070045
:1046000001003a004400050004080500020007000c
:10461000f9ff3a00140005006f826100810270000a
:10462000850271008502720000000600800078009b
:104630005002be005003be004439de00f700b20055
:10464000f37f200003016100090032000218e1003d
:1046500016003a00850172008301730083817300a4
:104660000008200015003a00400020001300370029
:1046700085017200830173008381730005003a0095
:1046800004a8be0006a8be00100020000b003700e2
:104690000201e9000402420085824a0006034b0041
:1046a00087834b000748a300f9ff32000740a000b2
:1046b00004a8be0006a8be002000200080009800cc
:1046c0009200980000000600680447000294be00b3
:1046d0000094be00fc0447008694be008494be0093
:1046e00009007800d1ff070008007800cfff07001d
:1046f00099007800814f70000b003b000800be005d
:104700000a0007004f00b10003003700f3ff270045
:10471000f2ff2f006110b9004f06be004f05be002a
:104720004f04be000080fa0000000600e482400052
:104730001078a30007003200640240001178a30043
:104740003400be001401be00040032000330a70094
:10475000000006003500be001501be000330a000b9
:10476000000006001800fa00889fbe008a9fbe0065
:104770008c1f78000004be000205be000802be00c7
:104780000a03be00443ade00f07f2000000662000b
:1047900020432000800f560067003c006022b800d4
:1047a0006033b8000800be00c0fc07000000e00055
:1047b000610032000802be000a03be00b4b79f00c9
:1047c000c5b79f00d6b79f00e7b79f00e00f520024
:1047d000e08f5a00e00f5b00e08f5b000b003d00b4
:1047e0006022b80006002000073324000800be0045
:1047f0000a01be0031fd07006022b800060020005b
:104800000733240033fd07000a0037006022b80098
:1048100006002000073324000800be000a01be0085
:104820002cfd07006022b80006002000073324009a
:1048300022fd07000802be000a03be001ffd07009c
:104840000002be000203be00f4b79f0085bf9f00b8
:1048500096bf9f00a7bf9f00e03f2000800f56003b
:1048600017003c007fb097008fb897001fb99700e2
:10487000afb99700f0af9f0081b79f0092b79f003c
:10488000a3b79f006044b8006055b8003fb29700de
:10489000cfb297005fb39700efb39700e00f5200dd
:1048a000e08f5a00e00f5b00e08f5b0022003d00cc
:1048b0006044b8000a0020000bff2b001e003700e8
:1048c0006022b8006033b8007fb097008fb89700bf
:1048d0001fb99700afb9970079fc07000000e0000e
:1048e0000c0034007fb297008fba97001fbb97006f
:1048f000afbb97000800be000a01be00f5fc070030
:104900006022b8000600200007ff2300ebfc070030
:10491000070037007fb297008fba97001fbb970040
:10492000afbb97000800be000a01be00e9fc07000b
:104930000004be000205be000800be000a01be0061
:104940004f0678004f05be004f04be000080fa00fd
:04495000000006005d
:020000040000fa
:10495400000000000000000000000000005f0000f4
:104964000000000000070000000700000014000021
:104974007f1400007f140000242a00007f2a000016
:10498400122300001308000064620000364900008e
:104994005522000050000000050300000000000044
:1049a400001c000022410000000000004122000021
:1049b4001c000000140800003e0800001408000059
:1049c400083e00000808000000500000300000000d
:1049d400000800000808000008080000006000004b
:1049e4006000000000200000100800000402000025
:1049f4003e510000494500003e000000427f000097
:104a040040000000426100005149000046210000be
:104a1400414500004b31000018140000127f0000d3
:104a24001027000045450000453900003c4a0000bd
:104a3400494900003001000071090000050300002d
:104a44003649000049490000360600004949000083
:104a5400291e00000036000036000000000000009f
:104a64005636000000000000081400002241000037
:104a7400001400001414000014140000004100008d
:104a84002214000008020000015100000906000081
:104a940032490000794100003e7e000011110000ff
:104aa400117e00007f49000049490000363e0000a5
:104ab40041410000412200007f41000041220000ea
:104ac4001c7f000049490000494100007f090000a3
:104ad40009090000013e000041490000497a000034
:104ae4007f080000080800007f000000417f0000ec
:104af4004100000020400000413f0000017f000011
:104b040008140000224100007f40000040400000e3
:104b1400407f0000020c0000027f00007f040000c0
:104b2400081000007f3e000041410000413e0000ab
:104b34007f09000009090000063e00004151000001
:104b4400215e00007f09000019290000464600008c
:104b54004949000049310000010100007f010000c3
:104b6400013f000040400000403f00001f200000c3
:104b7400402000001f3f000040380000403f00007c
:104b840063140000081400006307000008700000ac
:104b9400080700006151000049450000430000007f
:104ba4007f410000410000000204000008100000e2
:104bb40020000000414100007f00000004020000ca
:104bc400010200000440000040400000404000009a
:104bd4000001000002040000002000005454000002
:104be400547800007f480000444400003838000036
:104bf40044440000442000003844000044480000bd
:104c04007f3800005454000054180000087e00004f
:104c140009010000020c000052520000523e000044
:104c24007f0800000404000078000000447d0000b8
:104c34004000000020400000443d0000007f0000d0
:104c44001028000044000000004100007f400000e4
:104c5400007c000004180000047800007c080000b8
:104c64000404000078380000444400004438000084
:104c74007c14000014140000080800001414000040
:104c8400187c00007c0800000404000008480000b0
:104c94005454000054200000043f0000444000002d
:104ca400203c000040400000207c00001c2000004c
:104cb400402000001c3c000040300000403c00004c
:104cc4004428000010280000440c0000505000004c
:104cd400503c000044640000544c000044000000b8
:104ce4000836000041000000000000007f000000c2
:104cf4000000000041360000080000000804000025
:104d0400081000000800000000000000000000007f
:104d1400000000000000000000000000000000008f
:104d2400000000000000000000000000000000007f
:104d3400000000000000000000000000000000006f
:104d4400000000000000000000000000000000005f
:104d5400000000000000000000000000000000004f
:104d6400000000000000000000000000000000003f
:104d7400000000000000000000000000000000002f
:104d8400000000000000000000000000000000001f
:104d94000000000000f00000f0f00000f0f000005f
:104da400f0f00000f0f00000f0f00000f0f000007f
:104db400f0f00000f0f00000f0f00000f0f000006f
:104dc400f0f00000f0f00000f0f00000f0f000005f
:104dd400f0f00000f0f00000f0f00000f0f000004f
:104de400f0f00000f0f00000f0f00000f0f000003f
:104df400f0f00000f00000000000000000000000df
:104e0400000000000000000000000000000000009e
:104e14000000000000ff0000ffff0000ff00000092
:104e24000000000000ff0000ffff0000ff00000082
:104e3400000000000000000000000000000000006e
:104e44000000000000ff0000ffff0000ff00000062
:104e5400000000000000000000000000000000004e
:104e64000000000000ff0000ffff0000ff00000042
:104e74000000000000ff0000ffff0000ff00000032
:104e8400000000000000000000000000000000001e
:104e94000000000000ff0000ffff0000ff00000012
:104ea4000000000000ff0000ffff0000ff00000002
:104eb40000000000000300000303000003ff0000e3
:104ec400ffff0000ff0300000303000003000000d5
:104ed40000000000000000000000000000000000ce
:104ee4000000000000ff0000ffff0000ff000000c2
:104ef4000000000000ff0000ffff0000ff000000b2
:104f0400000000000000000000000000000000009d
:104f14000000000000010000010100000100000089
:104f24000000000000ff0000ffff0000ff00000081
:104f340000000000000000000000000000ff00006e
:104f4400ffff0000ff000000000000000000000060
:104f5400000000000000000000000000000000004d
:104f64000000000000ff0000ffff0000ff18000029
:104f740018180000180f00000f0f00000f000000a9
:104f8400000000000000000000000000000000001d
:104f940000000000000000000000000000e000002d
:104fa400e0e00000e01f00001f1f00001fe0000001
:104fb400e0e00000e00000000000000000ff00004e
:104fc400ffff0000ff0000000000000000000000e0
:104fd40000000000000000000000000000000000cd
:104fe4000000000000ff0000ffff0000ff000000c1
:104ff40000000000000000000000000000000000ad
:10500400000000000000000000000000000000009c
:1050140000000000000f00000f0f00000f0f000041
:105024000f0f00000f0f00000f0f00000f0f000004
:105034000f0f00000f0f00000f0f00000f0f0000f4
:105044000f0f00000f0f00000f0f00000f0f0000e4
:105054000f0f00000f0f00000f0f00000f0f0000d4
:105064000f0f00000f0f00000f0f00000f0f0000c4
:105074000f0f00000f0000000000000000000000ff
:10508400000000000000000000000000000000001c
:10509400000000000000000000000000000000000c
:1050a40000000000000000000000000000000000fc
:1050b40000000000000000000000000000000000ec
:1050c40000000000000000000000000000000000dc
:1050d40000000000000000000000000000000000cc
:1050e40000000000000000000000000000000000bc
:1050f40000000000000000000000000000000000ac
:1051040000000000002e00000030000000490000f4
:105114006e76000065720000736f0000722000005c
:105124003530000030570000004300006172000079
:10513400676100006e6400006f2e00002e2e0000d8
:10514400003d00003d3d000020430000414c0000b4
:105154004942000052410000434900004f4e000004
:10516400203d00003d3d000000430000616c000054
:1051740069620000726100006e6400006f2e00001e
:105184002e2e0000004300006f6d0000706c0000c4
:1051940065740000616400006f210000003d0000a0
:1051a4003d3d000020410000434500005243000003
:1051b4004120000044450000203d00003d3d00002a
:1051c40000460000573a00000042000075690000e4
:1051d4006c6400003a000000496e0000766500002f
